:100000000C942A000C94E6020C94E6020C94E6028E
:100010000C94E6020C94E6020C94E6020C94E602C0
:100020000C94E6020C94E6020C94E6020C94E602B0
:100030000C94E6020C94E6020C94E6020C94E602A0
:100040000C94E6020C94E6020C94E6020C94E60290
:100050000C94E60211241FBECFE5D8E0DEBFCDBF71
:0C0060000E9460000C943400F894FFCF64
:10006C005374617274696E67004C454420302049AA
:10007C0053204F4E004C45442030204953204F46CE
:10008C0046004C45442031204953204F4E004C45EE
:10009C00442031204953204F4646004C45442032E1
:1000AC00204953204F4E004C4544203220495320C8
:0400BC004F46460065
:1000C000CF93DF93CDB7DEB7C455D1090FB6F894FF
:1000D000DEBF0FBECDBF2CE630E040E089E0F90185
:1000E000DE011196742F0E94930225E730E040E074
:1000F0008CE0F901DE011A96742F0E94930221E828
:1001000030E040E08DE0F901DE015696742F0E9448
:1001100093022EE830E040E08CE0F901DE01939696
:10012000742F0E9493022AE930E040E08DE0F9014B
:10013000DE019F96742F0E94930227EA30E040E090
:100140008CE0F901DE01DC96742F0E94930223EB10
:1001500030E040E08DE0F901DE01A85BBF4F742F75
:100160000E94930260E070E080E090E00E94F30162
:1001700060E070E084E090E00E94F30160E070E0F5
:1001800082E090E00E94350261E070E082E090E061
:100190000E94140261E070E087E090E00E94140287
:1001A00061E070E083E090E00E9435020E94560218
:1001B0000E948602CE0101960E9477022FEF83ED06
:1001C00090E3215080409040E1F700C000000E9481
:1001D0008602C12CD12CE12CF12C00E010E0AA24E5
:1001E000A394B12C2FEF81EE94E0215080409040F9
:1001F000E1F700C0000080E090E00E94B802892B87
:1002000089F10E948602012BB1F482E090E00E9405
:10021000D002CE010A960E9477022FEF8DE399E477
:10022000215080409040E1F700C000000E9486020B
:100230000A2D1B2D17C00E94860282E090E00E94CA
:10024000A002CE0146960E9477022FEF8DE399E43B
:10025000215080409040E1F700C000000E948602DB
:1002600000E010E084E090E00E94B802892B89F160
:100270000E948602EF28B1F487E090E00E94D0024D
:10028000CE0183960E9477022FEF8DE399E42150EF
:1002900080409040E1F700C000000E948602EA2CF6
:1002A000FB2C17C00E94860287E090E00E94A0020B
:1002B000CE018F960E9477022FEF8DE399E42150B3
:1002C00080409040E1F700C000000E948602E12CCF
:1002D000F12C82E090E00E94C402892B09F482CFC5
:1002E0000E948602CD28B1F483E090E00E94DB02F8
:1002F000CE01CC960E9477022FEF8DE399E4215036
:1003000080409040E1F700C000000E948602CA2CA5
:10031000DB2C68CF0E94860283E090E00E94AC0252
:10032000CE01885B9F4F0E9477022FEF8DE399E407
:10033000215080409040E1F700C000000E948602FA
:06034000C12CD12C4FCFAF
:100346009BB39F70282F207F922B9BBBC198C39A8B
:1003560035E33A95F1F70000C398EFE3FFE13197F3
:10036600F1F700C000002BB32F70F0E18F9FC001A2
:100376001124822B8BBBC39A35E03A95F1F7000026
:10038600C3988FE39FE10197F1F700C0000008953D
:100396009BB39F70282F207F922B9BBBC19AC39A39
:1003A60035E33A95F1F70000C398EFE1F3E03197B2
:1003B600F1F700C000002BB32F70F0E18F9FC00152
:1003C6001124822B8BBBC39A35E33A95F1F70000D3
:1003D600C3988FE59DE60197F1F700C000000895E8
:1003E6006115710571F447B321E030E0B90102C02F
:1003F600660F771F8A95E2F7CB018095842387BB2A
:1004060008956130710561F447B321E030E0B90128
:1004160002C0660F771F8A95E2F7CB01842B87BB54
:02042600089537
:100428006115710571F444B321E030E0B90102C0EF
:10043800660F771F8A95E2F7CB018095842384BBEA
:1004480008956130710561F444B321E030E0B901E9
:1004580002C0660F771F8A95E2F7CB01842B84BB15
:020468000895F5
:10046A006115710571F441B321E030E0B90102C0B0
:10047A00660F771F8A95E2F7CB018095842381BBAB
:10048A0008956130710561F441B321E030E0B901AA
:10049A0002C0660F771F8A95E2F7CB01842B81BBD6
:0204AA000895B3
:1004AC008FEF8ABB8FE087BBC2982FEF89EF90E06C
:1004BC00215080409040E1F700C0000083E30E948F
:1004CC00A30182E30E94A30188E20E94A3018CE0B5
:1004DC000E94A30186E00E94A30181E00E94A30177
:0204EC00089571
:1004EE00CF93DF93EC018881882331F021960E940F
:0E04FE00CB0189918111FBCFDF91CF91089541
:10050C0081E00E94A3018FE39FE10197F1F700C006
:0A051C00000080E80E94A30108958A
:10052600992777FD05C005900D920197E1F708958B
:0A05360001900D920197E1F708957E
:1005400095B321E030E002C0220F331F8A95E2F715
:080550002095292325BB089525
:1005580092B321E030E002C0220F331F8A95E2F700
:080568002095292322BB089510
:1005700026B330E0A90102C0559547958A95E2F768
:08058000CA018170992708955A
:1005880020B330E0A90102C0559547958A95E2F756
:08059800CA0181709927089542
:1005A00095B321E030E002C0220F331F8A95E2F7B5
:0605B000292B25BB089574
:1005B60092B321E030E002C0220F331F8A95E2F7A2
:0605C600292B22BB089561
:0405CC000C9400008B
:00000001FF
